{
  "_format": "hh-sol-artifact-1",
  "contractName": "Escrow",
  "sourceName": "contracts/Escrow.sol",
  "abi": [
    {
      "inputs": [
        {
          "internalType": "address",
          "name": "_arbiter",
          "type": "address"
        },
        {
          "internalType": "address payable",
          "name": "_beneficiary",
          "type": "address"
        }
      ],
      "stateMutability": "payable",
      "type": "constructor"
    },
    {
      "anonymous": false,
      "inputs": [
        {
          "indexed": false,
          "internalType": "uint256",
          "name": "balance",
          "type": "uint256"
        }
      ],
      "name": "Approved",
      "type": "event"
    },
    {
      "inputs": [],
      "name": "approve",
      "outputs": [],
      "stateMutability": "nonpayable",
      "type": "function"
    },
    {
      "inputs": [],
      "name": "arbiter",
      "outputs": [
        {
          "internalType": "address",
          "name": "",
          "type": "address"
        }
      ],
      "stateMutability": "view",
      "type": "function"
    },
    {
      "inputs": [],
      "name": "beneficiary",
      "outputs": [
        {
          "internalType": "address payable",
          "name": "",
          "type": "address"
        }
      ],
      "stateMutability": "view",
      "type": "function"
    },
    {
      "inputs": [],
      "name": "depositor",
      "outputs": [
        {
          "internalType": "address",
          "name": "",
          "type": "address"
        }
      ],
      "stateMutability": "view",
      "type": "function"
    },
    {
      "inputs": [],
      "name": "isApproved",
      "outputs": [
        {
          "internalType": "bool",
          "name": "",
          "type": "bool"
        }
      ],
      "stateMutability": "view",
      "type": "function"
    }
  ],
  "bytecode": "0x608060405260405161075b38038061075b83398181016040528101906100259190610118565b336000806101000a81548173ffffffffffffffffffffffffffffffffffffffff021916908373ffffffffffffffffffffffffffffffffffffffff16021790555081600160006101000a81548173ffffffffffffffffffffffffffffffffffffffff021916908373ffffffffffffffffffffffffffffffffffffffff16021790555080600260006101000a81548173ffffffffffffffffffffffffffffffffffffffff021916908373ffffffffffffffffffffffffffffffffffffffff16021790555050506101c6565b6000815190506100fd81610198565b92915050565b600081519050610112816101af565b92915050565b6000806040838503121561012b57600080fd5b6000610139858286016100ee565b925050602061014a85828601610103565b9150509250929050565b600061015f82610178565b9050919050565b600061017182610178565b9050919050565b600073ffffffffffffffffffffffffffffffffffffffff82169050919050565b6101a181610154565b81146101ac57600080fd5b50565b6101b881610166565b81146101c357600080fd5b50565b610586806101d56000396000f3fe608060405234801561001057600080fd5b50600436106100575760003560e01c806312424e3f1461005c57806328f371aa1461006657806338af3eed14610084578063c7c4ff46146100a2578063fe25e00a146100c0575b600080fd5b6100646100de565b005b61006e61029c565b60405161007b919061040f565b60405180910390f35b61008c6102af565b60405161009991906103f4565b60405180910390f35b6100aa6102d5565b6040516100b791906103d9565b60405180910390f35b6100c86102f9565b6040516100d591906103d9565b60405180910390f35b600160009054906101000a900473ffffffffffffffffffffffffffffffffffffffff1673ffffffffffffffffffffffffffffffffffffffff163373ffffffffffffffffffffffffffffffffffffffff161461016e576040517f08c379a00000000000000000000000000000000000000000000000000000000081526004016101659061042a565b60405180910390fd5b476003819055506000600260009054906101000a900473ffffffffffffffffffffffffffffffffffffffff1673ffffffffffffffffffffffffffffffffffffffff166003546040516101bf906103c4565b60006040518083038185875af1925050503d80600081146101fc576040519150601f19603f3d011682016040523d82523d6000602084013e610201565b606091505b5050905080610245576040517f08c379a000000000000000000000000000000000000000000000000000000000815260040161023c9061044a565b60405180910390fd5b7f3ad93af63cb7967b23e4fb500b7d7d28b07516325dcf341f88bebf959d82c1cb600354604051610276919061046a565b60405180910390a16001600260146101000a81548160ff02191690831515021790555050565b600260149054906101000a900460ff1681565b600260009054906101000a900473ffffffffffffffffffffffffffffffffffffffff1681565b60008054906101000a900473ffffffffffffffffffffffffffffffffffffffff1681565b600160009054906101000a900473ffffffffffffffffffffffffffffffffffffffff1681565b610328816104b3565b82525050565b610337816104a1565b82525050565b610346816104c5565b82525050565b6000610359601b83610490565b9150610364826104fb565b602082019050919050565b600061037c600083610485565b915061038782610524565b600082019050919050565b600061039f601483610490565b91506103aa82610527565b602082019050919050565b6103be816104f1565b82525050565b60006103cf8261036f565b9150819050919050565b60006020820190506103ee600083018461032e565b92915050565b6000602082019050610409600083018461031f565b92915050565b6000602082019050610424600083018461033d565b92915050565b600060208201905081810360008301526104438161034c565b9050919050565b6000602082019050818103600083015261046381610392565b9050919050565b600060208201905061047f60008301846103b5565b92915050565b600081905092915050565b600082825260208201905092915050565b60006104ac826104d1565b9050919050565b60006104be826104d1565b9050919050565b60008115159050919050565b600073ffffffffffffffffffffffffffffffffffffffff82169050919050565b6000819050919050565b7f63616e6e6f7420706572666f726d207468697320616374696f6e2e0000000000600082015250565b50565b7f6661696c656420746f2073656e6420457468657200000000000000000000000060008201525056fea2646970667358221220e5d70c4366ebdda148adb836c06c1ad879367a5c43bf5175fe9164486626f96064736f6c63430008040033",
  "linkReferences": {},
  "deployedLinkReferences": {}
}