{
  "_format": "hh-sol-artifact-1",
  "contractName": "ChainBattles",
  "sourceName": "contracts/ChainBattles.sol",
  "abi": [
    {
      "inputs": [],
      "stateMutability": "nonpayable",
      "type": "constructor"
    },
    {
      "anonymous": false,
      "inputs": [
        {
          "indexed": true,
          "internalType": "address",
          "name": "owner",
          "type": "address"
        },
        {
          "indexed": true,
          "internalType": "address",
          "name": "approved",
          "type": "address"
        },
        {
          "indexed": true,
          "internalType": "uint256",
          "name": "tokenId",
          "type": "uint256"
        }
      ],
      "name": "Approval",
      "type": "event"
    },
    {
      "anonymous": false,
      "inputs": [
        {
          "indexed": true,
          "internalType": "address",
          "name": "owner",
          "type": "address"
        },
        {
          "indexed": true,
          "internalType": "address",
          "name": "operator",
          "type": "address"
        },
        {
          "indexed": false,
          "internalType": "bool",
          "name": "approved",
          "type": "bool"
        }
      ],
      "name": "ApprovalForAll",
      "type": "event"
    },
    {
      "anonymous": false,
      "inputs": [
        {
          "indexed": true,
          "internalType": "address",
          "name": "from",
          "type": "address"
        },
        {
          "indexed": true,
          "internalType": "address",
          "name": "to",
          "type": "address"
        },
        {
          "indexed": true,
          "internalType": "uint256",
          "name": "tokenId",
          "type": "uint256"
        }
      ],
      "name": "Transfer",
      "type": "event"
    },
    {
      "inputs": [
        {
          "internalType": "address",
          "name": "to",
          "type": "address"
        },
        {
          "internalType": "uint256",
          "name": "tokenId",
          "type": "uint256"
        }
      ],
      "name": "approve",
      "outputs": [],
      "stateMutability": "nonpayable",
      "type": "function"
    },
    {
      "inputs": [
        {
          "internalType": "address",
          "name": "owner",
          "type": "address"
        }
      ],
      "name": "balanceOf",
      "outputs": [
        {
          "internalType": "uint256",
          "name": "",
          "type": "uint256"
        }
      ],
      "stateMutability": "view",
      "type": "function"
    },
    {
      "inputs": [
        {
          "internalType": "uint256",
          "name": "tokenId",
          "type": "uint256"
        }
      ],
      "name": "generateCharacter",
      "outputs": [
        {
          "internalType": "string",
          "name": "",
          "type": "string"
        }
      ],
      "stateMutability": "nonpayable",
      "type": "function"
    },
    {
      "inputs": [
        {
          "internalType": "uint256",
          "name": "tokenId",
          "type": "uint256"
        }
      ],
      "name": "getApproved",
      "outputs": [
        {
          "internalType": "address",
          "name": "",
          "type": "address"
        }
      ],
      "stateMutability": "view",
      "type": "function"
    },
    {
      "inputs": [
        {
          "internalType": "uint256",
          "name": "tokenId",
          "type": "uint256"
        }
      ],
      "name": "getLevels",
      "outputs": [
        {
          "internalType": "string",
          "name": "",
          "type": "string"
        }
      ],
      "stateMutability": "view",
      "type": "function"
    },
    {
      "inputs": [
        {
          "internalType": "uint256",
          "name": "tokenId",
          "type": "uint256"
        }
      ],
      "name": "getTokenURI",
      "outputs": [
        {
          "internalType": "string",
          "name": "",
          "type": "string"
        }
      ],
      "stateMutability": "nonpayable",
      "type": "function"
    },
    {
      "inputs": [
        {
          "internalType": "address",
          "name": "owner",
          "type": "address"
        },
        {
          "internalType": "address",
          "name": "operator",
          "type": "address"
        }
      ],
      "name": "isApprovedForAll",
      "outputs": [
        {
          "internalType": "bool",
          "name": "",
          "type": "bool"
        }
      ],
      "stateMutability": "view",
      "type": "function"
    },
    {
      "inputs": [],
      "name": "mint",
      "outputs": [],
      "stateMutability": "nonpayable",
      "type": "function"
    },
    {
      "inputs": [],
      "name": "name",
      "outputs": [
        {
          "internalType": "string",
          "name": "",
          "type": "string"
        }
      ],
      "stateMutability": "view",
      "type": "function"
    },
    {
      "inputs": [
        {
          "internalType": "uint256",
          "name": "tokenId",
          "type": "uint256"
        }
      ],
      "name": "ownerOf",
      "outputs": [
        {
          "internalType": "address",
          "name": "",
          "type": "address"
        }
      ],
      "stateMutability": "view",
      "type": "function"
    },
    {
      "inputs": [
        {
          "internalType": "address",
          "name": "from",
          "type": "address"
        },
        {
          "internalType": "address",
          "name": "to",
          "type": "address"
        },
        {
          "internalType": "uint256",
          "name": "tokenId",
          "type": "uint256"
        }
      ],
      "name": "safeTransferFrom",
      "outputs": [],
      "stateMutability": "nonpayable",
      "type": "function"
    },
    {
      "inputs": [
        {
          "internalType": "address",
          "name": "from",
          "type": "address"
        },
        {
          "internalType": "address",
          "name": "to",
          "type": "address"
        },
        {
          "internalType": "uint256",
          "name": "tokenId",
          "type": "uint256"
        },
        {
          "internalType": "bytes",
          "name": "data",
          "type": "bytes"
        }
      ],
      "name": "safeTransferFrom",
      "outputs": [],
      "stateMutability": "nonpayable",
      "type": "function"
    },
    {
      "inputs": [
        {
          "internalType": "address",
          "name": "operator",
          "type": "address"
        },
        {
          "internalType": "bool",
          "name": "approved",
          "type": "bool"
        }
      ],
      "name": "setApprovalForAll",
      "outputs": [],
      "stateMutability": "nonpayable",
      "type": "function"
    },
    {
      "inputs": [
        {
          "internalType": "bytes4",
          "name": "interfaceId",
          "type": "bytes4"
        }
      ],
      "name": "supportsInterface",
      "outputs": [
        {
          "internalType": "bool",
          "name": "",
          "type": "bool"
        }
      ],
      "stateMutability": "view",
      "type": "function"
    },
    {
      "inputs": [],
      "name": "symbol",
      "outputs": [
        {
          "internalType": "string",
          "name": "",
          "type": "string"
        }
      ],
      "stateMutability": "view",
      "type": "function"
    },
    {
      "inputs": [
        {
          "internalType": "uint256",
          "name": "",
          "type": "uint256"
        }
      ],
      "name": "tokenIdToLevels",
      "outputs": [
        {
          "internalType": "uint256",
          "name": "",
          "type": "uint256"
        }
      ],
      "stateMutability": "view",
      "type": "function"
    },
    {
      "inputs": [
        {
          "internalType": "uint256",
          "name": "tokenId",
          "type": "uint256"
        }
      ],
      "name": "tokenURI",
      "outputs": [
        {
          "internalType": "string",
          "name": "",
          "type": "string"
        }
      ],
      "stateMutability": "view",
      "type": "function"
    },
    {
      "inputs": [
        {
          "internalType": "uint256",
          "name": "tokenId",
          "type": "uint256"
        }
      ],
      "name": "train",
      "outputs": [],
      "stateMutability": "nonpayable",
      "type": "function"
    },
    {
      "inputs": [
        {
          "internalType": "address",
          "name": "from",
          "type": "address"
        },
        {
          "internalType": "address",
          "name": "to",
          "type": "address"
        },
        {
          "internalType": "uint256",
          "name": "tokenId",
          "type": "uint256"
        }
      ],
      "name": "transferFrom",
      "outputs": [],
      "stateMutability": "nonpayable",
      "type": "function"
    }
  ],
  "bytecode": "0x60806040523480156200001157600080fd5b506040518060400160405280600d81526020017f436861696e20426174746c6573000000000000000000000000000000000000008152506040518060400160405280600581526020017f4342544c53000000000000000000000000000000000000000000000000000000815250816000908051906020019062000096929190620000b8565b508060019080519060200190620000af929190620000b8565b505050620001cd565b828054620000c69062000197565b90600052602060002090601f016020900481019282620000ea576000855562000136565b82601f106200010557805160ff191683800117855562000136565b8280016001018555821562000136579182015b828111156200013557825182559160200191906001019062000118565b5b50905062000145919062000149565b5090565b5b80821115620001645760008160009055506001016200014a565b5090565b7f4e487b7100000000000000000000000000000000000000000000000000000000600052602260045260246000fd5b60006002820490506001821680620001b057607f821691505b60208210811415620001c757620001c662000168565b5b50919050565b61367280620001dd6000396000f3fe608060405234801561001057600080fd5b50600436106101215760003560e01c806342842e0e116100ad578063b88d4fde11610071578063b88d4fde14610318578063c6a4342f14610334578063c87b56dd14610364578063e985e9c514610394578063f43785f9146103c457610121565b806342842e0e146102625780636352211e1461027e57806370a08231146102ae57806395d89b41146102de578063a22cb465146102fc57610121565b80630daefed5116100f45780630daefed5146101c05780631249c58b146101f057806323b872dd146101fa578063368004ed146102165780633bb3a24d1461023257610121565b806301ffc9a71461012657806306fdde0314610156578063081812fc14610174578063095ea7b3146101a4575b600080fd5b610140600480360381019061013b9190611d73565b6103f4565b60405161014d9190611dbb565b60405180910390f35b61015e6104d6565b60405161016b9190611e6f565b60405180910390f35b61018e60048036038101906101899190611ec7565b610568565b60405161019b9190611f35565b60405180910390f35b6101be60048036038101906101b99190611f7c565b6105ae565b005b6101da60048036038101906101d59190611ec7565b6106c6565b6040516101e79190611e6f565b60405180910390f35b6101f8610724565b005b610214600480360381019061020f9190611fbc565b610774565b005b610230600480360381019061022b9190611ec7565b6107d4565b005b61024c60048036038101906102479190611ec7565b6108e4565b6040516102599190611e6f565b60405180910390f35b61027c60048036038101906102779190611fbc565b61094c565b005b61029860048036038101906102939190611ec7565b61096c565b6040516102a59190611f35565b60405180910390f35b6102c860048036038101906102c3919061200f565b610a1e565b6040516102d5919061204b565b60405180910390f35b6102e6610ad6565b6040516102f39190611e6f565b60405180910390f35b61031660048036038101906103119190612092565b610b68565b005b610332600480360381019061032d9190612207565b610b7e565b005b61034e60048036038101906103499190611ec7565b610be0565b60405161035b919061204b565b60405180910390f35b61037e60048036038101906103799190611ec7565b610bf8565b60405161038b9190611e6f565b60405180910390f35b6103ae60048036038101906103a9919061228a565b610d0b565b6040516103bb9190611dbb565b60405180910390f35b6103de60048036038101906103d99190611ec7565b610d9f565b6040516103eb9190611e6f565b60405180910390f35b60007f80ac58cd000000000000000000000000000000000000000000000000000000007bffffffffffffffffffffffffffffffffffffffffffffffffffffffff1916827bffffffffffffffffffffffffffffffffffffffffffffffffffffffff191614806104bf57507f5b5e139f000000000000000000000000000000000000000000000000000000007bffffffffffffffffffffffffffffffffffffffffffffffffffffffff1916827bffffffffffffffffffffffffffffffffffffffffffffffffffffffff1916145b806104cf57506104ce82610dca565b5b9050919050565b6060600080546104e5906122f9565b80601f0160208091040260200160405190810160405280929190818152602001828054610511906122f9565b801561055e5780601f106105335761010080835404028352916020019161055e565b820191906000526020600020905b81548152906001019060200180831161054157829003601f168201915b5050505050905090565b600061057382610e34565b6004600083815260200190815260200160002060009054906101000a900473ffffffffffffffffffffffffffffffffffffffff169050919050565b60006105b98261096c565b90508073ffffffffffffffffffffffffffffffffffffffff168373ffffffffffffffffffffffffffffffffffffffff16141561062a576040517f08c379a00000000000000000000000000000000000000000000000000000000081526004016106219061239d565b60405180910390fd5b8073ffffffffffffffffffffffffffffffffffffffff16610649610e7f565b73ffffffffffffffffffffffffffffffffffffffff161480610678575061067781610672610e7f565b610d0b565b5b6106b7576040517f08c379a00000000000000000000000000000000000000000000000000000000081526004016106ae9061242f565b60405180910390fd5b6106c18383610e87565b505050565b606060006106d383610d9f565b6040516020016106e391906128b3565b60405160208183030381529060405290506106fd81610f40565b60405160200161070d9190612984565b604051602081830303815290604052915050919050565b61072e60076110a4565b600061073a60076110ba565b905061074633826110c8565b600060086000838152602001908152602001600020819055506107718161076c836108e4565b6110e6565b50565b61078561077f610e7f565b8261115a565b6107c4576040517f08c379a00000000000000000000000000000000000000000000000000000000081526004016107bb90612a18565b60405180910390fd5b6107cf8383836111ef565b505050565b6107dd81611456565b61081c576040517f08c379a000000000000000000000000000000000000000000000000000000000815260040161081390612a84565b60405180910390fd5b3373ffffffffffffffffffffffffffffffffffffffff1661083c8261096c565b73ffffffffffffffffffffffffffffffffffffffff1614610892576040517f08c379a000000000000000000000000000000000000000000000000000000000815260040161088990612b16565b60405180910390fd5b6000600860008381526020019081526020016000205490506001816108b79190612b65565b60086000848152602001908152602001600020819055506108e0826108db846108e4565b6110e6565b5050565b606060006108f1836114c2565b6108fa846106c6565b60405160200161090b929190612df5565b604051602081830303815290604052905061092581610f40565b6040516020016109359190612eb2565b604051602081830303815290604052915050919050565b61096783838360405180602001604052806000815250610b7e565b505050565b6000806002600084815260200190815260200160002060009054906101000a900473ffffffffffffffffffffffffffffffffffffffff169050600073ffffffffffffffffffffffffffffffffffffffff168173ffffffffffffffffffffffffffffffffffffffff161415610a15576040517f08c379a0000000000000000000000000000000000000000000000000000000008152600401610a0c90612f20565b60405180910390fd5b80915050919050565b60008073ffffffffffffffffffffffffffffffffffffffff168273ffffffffffffffffffffffffffffffffffffffff161415610a8f576040517f08c379a0000000000000000000000000000000000000000000000000000000008152600401610a8690612fb2565b60405180910390fd5b600360008373ffffffffffffffffffffffffffffffffffffffff1673ffffffffffffffffffffffffffffffffffffffff168152602001908152602001600020549050919050565b606060018054610ae5906122f9565b80601f0160208091040260200160405190810160405280929190818152602001828054610b11906122f9565b8015610b5e5780601f10610b3357610100808354040283529160200191610b5e565b820191906000526020600020905b815481529060010190602001808311610b4157829003601f168201915b5050505050905090565b610b7a610b73610e7f565b8383611623565b5050565b610b8f610b89610e7f565b8361115a565b610bce576040517f08c379a0000000000000000000000000000000000000000000000000000000008152600401610bc590612a18565b60405180910390fd5b610bda84848484611790565b50505050565b60086020528060005260406000206000915090505481565b6060610c0382610e34565b6000600660008481526020019081526020016000208054610c23906122f9565b80601f0160208091040260200160405190810160405280929190818152602001828054610c4f906122f9565b8015610c9c5780601f10610c7157610100808354040283529160200191610c9c565b820191906000526020600020905b815481529060010190602001808311610c7f57829003601f168201915b505050505090506000610cad6117ec565b9050600081511415610cc3578192505050610d06565b600082511115610cf8578082604051602001610ce0929190612fd2565b60405160208183030381529060405292505050610d06565b610d0184611803565b925050505b919050565b6000600560008473ffffffffffffffffffffffffffffffffffffffff1673ffffffffffffffffffffffffffffffffffffffff16815260200190815260200160002060008373ffffffffffffffffffffffffffffffffffffffff1673ffffffffffffffffffffffffffffffffffffffff16815260200190815260200160002060009054906101000a900460ff16905092915050565b6060600060086000848152602001908152602001600020549050610dc2816114c2565b915050919050565b60007f01ffc9a7000000000000000000000000000000000000000000000000000000007bffffffffffffffffffffffffffffffffffffffffffffffffffffffff1916827bffffffffffffffffffffffffffffffffffffffffffffffffffffffff1916149050919050565b610e3d81611456565b610e7c576040517f08c379a0000000000000000000000000000000000000000000000000000000008152600401610e7390612f20565b60405180910390fd5b50565b600033905090565b816004600083815260200190815260200160002060006101000a81548173ffffffffffffffffffffffffffffffffffffffff021916908373ffffffffffffffffffffffffffffffffffffffff160217905550808273ffffffffffffffffffffffffffffffffffffffff16610efa8361096c565b73ffffffffffffffffffffffffffffffffffffffff167f8c5be1e5ebec7d5bd14f71427d1e84f3dd0314c0f7b2291e5b200ac8c7c3b92560405160405180910390a45050565b6060600082511415610f635760405180602001604052806000815250905061109f565b60006040518060600160405280604081526020016135fd6040913990506000600360028551610f929190612b65565b610f9c9190613025565b6004610fa89190613056565b67ffffffffffffffff811115610fc157610fc06120dc565b5b6040519080825280601f01601f191660200182016040528015610ff35781602001600182028036833780820191505090505b509050600182016020820185865187015b8082101561105f576003820191508151603f8160121c168501518453600184019350603f81600c1c168501518453600184019350603f8160061c168501518453600184019350603f8116850151845360018401935050611004565b505060038651066001811461107b576002811461108e57611096565b603d6001830353603d6002830353611096565b603d60018303535b50505080925050505b919050565b6001816000016000828254019250508190555050565b600081600001549050919050565b6110e282826040518060200160405280600081525061186b565b5050565b6110ef82611456565b61112e576040517f08c379a000000000000000000000000000000000000000000000000000000000815260040161112590613122565b60405180910390fd5b80600660008481526020019081526020016000209080519060200190611155929190611c64565b505050565b6000806111668361096c565b90508073ffffffffffffffffffffffffffffffffffffffff168473ffffffffffffffffffffffffffffffffffffffff1614806111a857506111a78185610d0b565b5b806111e657508373ffffffffffffffffffffffffffffffffffffffff166111ce84610568565b73ffffffffffffffffffffffffffffffffffffffff16145b91505092915050565b8273ffffffffffffffffffffffffffffffffffffffff1661120f8261096c565b73ffffffffffffffffffffffffffffffffffffffff1614611265576040517f08c379a000000000000000000000000000000000000000000000000000000000815260040161125c906131b4565b60405180910390fd5b600073ffffffffffffffffffffffffffffffffffffffff168273ffffffffffffffffffffffffffffffffffffffff1614156112d5576040517f08c379a00000000000000000000000000000000000000000000000000000000081526004016112cc90613246565b60405180910390fd5b6112e08383836118c6565b6112eb600082610e87565b6001600360008573ffffffffffffffffffffffffffffffffffffffff1673ffffffffffffffffffffffffffffffffffffffff168152602001908152602001600020600082825461133b9190613266565b925050819055506001600360008473ffffffffffffffffffffffffffffffffffffffff1673ffffffffffffffffffffffffffffffffffffffff16815260200190815260200160002060008282546113929190612b65565b92505081905550816002600083815260200190815260200160002060006101000a81548173ffffffffffffffffffffffffffffffffffffffff021916908373ffffffffffffffffffffffffffffffffffffffff160217905550808273ffffffffffffffffffffffffffffffffffffffff168473ffffffffffffffffffffffffffffffffffffffff167fddf252ad1be2c89b69c2b068fc378daa952ba7f163c4a11628f55a4df523b3ef60405160405180910390a46114518383836118cb565b505050565b60008073ffffffffffffffffffffffffffffffffffffffff166002600084815260200190815260200160002060009054906101000a900473ffffffffffffffffffffffffffffffffffffffff1673ffffffffffffffffffffffffffffffffffffffff1614159050919050565b6060600082141561150a576040518060400160405280600181526020017f3000000000000000000000000000000000000000000000000000000000000000815250905061161e565b600082905060005b6000821461153c5780806115259061329a565b915050600a826115359190613025565b9150611512565b60008167ffffffffffffffff811115611558576115576120dc565b5b6040519080825280601f01601f19166020018201604052801561158a5781602001600182028036833780820191505090505b5090505b60008514611617576001826115a39190613266565b9150600a856115b291906132e3565b60306115be9190612b65565b60f81b8183815181106115d4576115d3613314565b5b60200101907effffffffffffffffffffffffffffffffffffffffffffffffffffffffffffff1916908160001a905350600a856116109190613025565b945061158e565b8093505050505b919050565b8173ffffffffffffffffffffffffffffffffffffffff168373ffffffffffffffffffffffffffffffffffffffff161415611692576040517f08c379a00000000000000000000000000000000000000000000000000000000081526004016116899061338f565b60405180910390fd5b80600560008573ffffffffffffffffffffffffffffffffffffffff1673ffffffffffffffffffffffffffffffffffffffff16815260200190815260200160002060008473ffffffffffffffffffffffffffffffffffffffff1673ffffffffffffffffffffffffffffffffffffffff16815260200190815260200160002060006101000a81548160ff0219169083151502179055508173ffffffffffffffffffffffffffffffffffffffff168373ffffffffffffffffffffffffffffffffffffffff167f17307eab39ab6107e8899845ad3d59bd9653f200f220920489ca2b5937696c31836040516117839190611dbb565b60405180910390a3505050565b61179b8484846111ef565b6117a7848484846118d0565b6117e6576040517f08c379a00000000000000000000000000000000000000000000000000000000081526004016117dd90613421565b60405180910390fd5b50505050565b606060405180602001604052806000815250905090565b606061180e82610e34565b60006118186117ec565b905060008151116118385760405180602001604052806000815250611863565b80611842846114c2565b604051602001611853929190612fd2565b6040516020818303038152906040525b915050919050565b6118758383611a67565b61188260008484846118d0565b6118c1576040517f08c379a00000000000000000000000000000000000000000000000000000000081526004016118b890613421565b60405180910390fd5b505050565b505050565b505050565b60006118f18473ffffffffffffffffffffffffffffffffffffffff16611c41565b15611a5a578373ffffffffffffffffffffffffffffffffffffffff1663150b7a0261191a610e7f565b8786866040518563ffffffff1660e01b815260040161193c9493929190613496565b602060405180830381600087803b15801561195657600080fd5b505af192505050801561198757506040513d601f19601f8201168201806040525081019061198491906134f7565b60015b611a0a573d80600081146119b7576040519150601f19603f3d011682016040523d82523d6000602084013e6119bc565b606091505b50600081511415611a02576040517f08c379a00000000000000000000000000000000000000000000000000000000081526004016119f990613421565b60405180910390fd5b805181602001fd5b63150b7a0260e01b7bffffffffffffffffffffffffffffffffffffffffffffffffffffffff1916817bffffffffffffffffffffffffffffffffffffffffffffffffffffffff191614915050611a5f565b600190505b949350505050565b600073ffffffffffffffffffffffffffffffffffffffff168273ffffffffffffffffffffffffffffffffffffffff161415611ad7576040517f08c379a0000000000000000000000000000000000000000000000000000000008152600401611ace90613570565b60405180910390fd5b611ae081611456565b15611b20576040517f08c379a0000000000000000000000000000000000000000000000000000000008152600401611b17906135dc565b60405180910390fd5b611b2c600083836118c6565b6001600360008473ffffffffffffffffffffffffffffffffffffffff1673ffffffffffffffffffffffffffffffffffffffff1681526020019081526020016000206000828254611b7c9190612b65565b92505081905550816002600083815260200190815260200160002060006101000a81548173ffffffffffffffffffffffffffffffffffffffff021916908373ffffffffffffffffffffffffffffffffffffffff160217905550808273ffffffffffffffffffffffffffffffffffffffff16600073ffffffffffffffffffffffffffffffffffffffff167fddf252ad1be2c89b69c2b068fc378daa952ba7f163c4a11628f55a4df523b3ef60405160405180910390a4611c3d600083836118cb565b5050565b6000808273ffffffffffffffffffffffffffffffffffffffff163b119050919050565b828054611c70906122f9565b90600052602060002090601f016020900481019282611c925760008555611cd9565b82601f10611cab57805160ff1916838001178555611cd9565b82800160010185558215611cd9579182015b82811115611cd8578251825591602001919060010190611cbd565b5b509050611ce69190611cea565b5090565b5b80821115611d03576000816000905550600101611ceb565b5090565b6000604051905090565b600080fd5b600080fd5b60007fffffffff0000000000000000000000000000000000000000000000000000000082169050919050565b611d5081611d1b565b8114611d5b57600080fd5b50565b600081359050611d6d81611d47565b92915050565b600060208284031215611d8957611d88611d11565b5b6000611d9784828501611d5e565b91505092915050565b60008115159050919050565b611db581611da0565b82525050565b6000602082019050611dd06000830184611dac565b92915050565b600081519050919050565b600082825260208201905092915050565b60005b83811015611e10578082015181840152602081019050611df5565b83811115611e1f576000848401525b50505050565b6000601f19601f8301169050919050565b6000611e4182611dd6565b611e4b8185611de1565b9350611e5b818560208601611df2565b611e6481611e25565b840191505092915050565b60006020820190508181036000830152611e898184611e36565b905092915050565b6000819050919050565b611ea481611e91565b8114611eaf57600080fd5b50565b600081359050611ec181611e9b565b92915050565b600060208284031215611edd57611edc611d11565b5b6000611eeb84828501611eb2565b91505092915050565b600073ffffffffffffffffffffffffffffffffffffffff82169050919050565b6000611f1f82611ef4565b9050919050565b611f2f81611f14565b82525050565b6000602082019050611f4a6000830184611f26565b92915050565b611f5981611f14565b8114611f6457600080fd5b50565b600081359050611f7681611f50565b92915050565b60008060408385031215611f9357611f92611d11565b5b6000611fa185828601611f67565b9250506020611fb285828601611eb2565b9150509250929050565b600080600060608486031215611fd557611fd4611d11565b5b6000611fe386828701611f67565b9350506020611ff486828701611f67565b925050604061200586828701611eb2565b9150509250925092565b60006020828403121561202557612024611d11565b5b600061203384828501611f67565b91505092915050565b61204581611e91565b82525050565b6000602082019050612060600083018461203c565b92915050565b61206f81611da0565b811461207a57600080fd5b50565b60008135905061208c81612066565b92915050565b600080604083850312156120a9576120a8611d11565b5b60006120b785828601611f67565b92505060206120c88582860161207d565b9150509250929050565b600080fd5b600080fd5b7f4e487b7100000000000000000000000000000000000000000000000000000000600052604160045260246000fd5b61211482611e25565b810181811067ffffffffffffffff82111715612133576121326120dc565b5b80604052505050565b6000612146611d07565b9050612152828261210b565b919050565b600067ffffffffffffffff821115612172576121716120dc565b5b61217b82611e25565b9050602081019050919050565b82818337600083830152505050565b60006121aa6121a584612157565b61213c565b9050828152602081018484840111156121c6576121c56120d7565b5b6121d1848285612188565b509392505050565b600082601f8301126121ee576121ed6120d2565b5b81356121fe848260208601612197565b91505092915050565b6000806000806080858703121561222157612220611d11565b5b600061222f87828801611f67565b945050602061224087828801611f67565b935050604061225187828801611eb2565b925050606085013567ffffffffffffffff81111561227257612271611d16565b5b61227e878288016121d9565b91505092959194509250565b600080604083850312156122a1576122a0611d11565b5b60006122af85828601611f67565b92505060206122c085828601611f67565b9150509250929050565b7f4e487b7100000000000000000000000000000000000000000000000000000000600052602260045260246000fd5b6000600282049050600182168061231157607f821691505b60208210811415612325576123246122ca565b5b50919050565b7f4552433732313a20617070726f76616c20746f2063757272656e74206f776e6560008201527f7200000000000000000000000000000000000000000000000000000000000000602082015250565b6000612387602183611de1565b91506123928261232b565b604082019050919050565b600060208201905081810360008301526123b68161237a565b9050919050565b7f4552433732313a20617070726f76652063616c6c6572206973206e6f7420746f60008201527f6b656e206f776e6572206e6f7220617070726f76656420666f7220616c6c0000602082015250565b6000612419603e83611de1565b9150612424826123bd565b604082019050919050565b600060208201905081810360008301526124488161240c565b9050919050565b600081905092915050565b7f3c73766720786d6c6e733d22687474703a2f2f7777772e77332e6f72672f323060008201527f30302f73766722207072657365727665417370656374526174696f3d22784d6960208201527f6e594d696e206d656574222076696577426f783d22302030203335302033353060408201527f223e000000000000000000000000000000000000000000000000000000000000606082015250565b600061250260628361244f565b915061250d8261245a565b606282019050919050565b7f3c7374796c653e2e62617365207b2066696c6c3a2077686974653b20666f6e7460008201527f2d66616d696c793a2073657269663b20666f6e742d73697a653a20313470783b60208201527f207d3c2f7374796c653e00000000000000000000000000000000000000000000604082015250565b600061259a604a8361244f565b91506125a582612518565b604a82019050919050565b7f3c726563742077696474683d223130302522206865696768743d22313030252260008201527f2066696c6c3d22626c61636b22202f3e00000000000000000000000000000000602082015250565b600061260c60308361244f565b9150612617826125b0565b603082019050919050565b7f3c7465787420783d223530252220793d223430252220636c6173733d2262617360008201527f652220646f6d696e616e742d626173656c696e653d226d6964646c652220746560208201527f78742d616e63686f723d226d6964646c65223e00000000000000000000000000604082015250565b60006126a460538361244f565b91506126af82612622565b605382019050919050565b7f57617272696f7200000000000000000000000000000000000000000000000000600082015250565b60006126f060078361244f565b91506126fb826126ba565b600782019050919050565b7f3c2f746578743e00000000000000000000000000000000000000000000000000600082015250565b600061273c60078361244f565b915061274782612706565b600782019050919050565b7f3c7465787420783d223530252220793d223530252220636c6173733d2262617360008201527f652220646f6d696e616e742d626173656c696e653d226d6964646c652220746560208201527f78742d616e63686f723d226d6964646c65223e00000000000000000000000000604082015250565b60006127d460538361244f565b91506127df82612752565b605382019050919050565b7f4c6576656c733a20000000000000000000000000000000000000000000000000600082015250565b600061282060088361244f565b915061282b826127ea565b600882019050919050565b600061284182611dd6565b61284b818561244f565b935061285b818560208601611df2565b80840191505092915050565b7f3c2f7376673e0000000000000000000000000000000000000000000000000000600082015250565b600061289d60068361244f565b91506128a882612867565b600682019050919050565b60006128be826124f5565b91506128c98261258d565b91506128d4826125ff565b91506128df82612697565b91506128ea826126e3565b91506128f58261272f565b9150612900826127c7565b915061290b82612813565b91506129178284612836565b91506129228261272f565b915061292d82612890565b915081905092915050565b7f646174613a696d6167652f7376672b786d6c3b6261736536342c000000000000600082015250565b600061296e601a8361244f565b915061297982612938565b601a82019050919050565b600061298f82612961565b915061299b8284612836565b915081905092915050565b7f4552433732313a2063616c6c6572206973206e6f7420746f6b656e206f776e6560008201527f72206e6f7220617070726f766564000000000000000000000000000000000000602082015250565b6000612a02602e83611de1565b9150612a0d826129a6565b604082019050919050565b60006020820190508181036000830152612a31816129f5565b9050919050565b7f506c656173652075736520616e206578697374696e6720746f6b656e00000000600082015250565b6000612a6e601c83611de1565b9150612a7982612a38565b602082019050919050565b60006020820190508181036000830152612a9d81612a61565b9050919050565b7f596f75206d757374206f776e207468697320746f6b656e20746f20747261696e60008201527f2069740000000000000000000000000000000000000000000000000000000000602082015250565b6000612b00602383611de1565b9150612b0b82612aa4565b604082019050919050565b60006020820190508181036000830152612b2f81612af3565b9050919050565b7f4e487b7100000000000000000000000000000000000000000000000000000000600052601160045260246000fd5b6000612b7082611e91565b9150612b7b83611e91565b9250827fffffffffffffffffffffffffffffffffffffffffffffffffffffffffffffffff03821115612bb057612baf612b36565b5b828201905092915050565b7f7b00000000000000000000000000000000000000000000000000000000000000600082015250565b6000612bf160018361244f565b9150612bfc82612bbb565b600182019050919050565b7f226e616d65223a2022436861696e20426174746c657320230000000000000000600082015250565b6000612c3d60188361244f565b9150612c4882612c07565b601882019050919050565b7f222c000000000000000000000000000000000000000000000000000000000000600082015250565b6000612c8960028361244f565b9150612c9482612c53565b600282019050919050565b7f226465736372697074696f6e223a2022426174746c6573206f6e20636861696e60008201527f222c000000000000000000000000000000000000000000000000000000000000602082015250565b6000612cfb60228361244f565b9150612d0682612c9f565b602282019050919050565b7f22696d616765223a202200000000000000000000000000000000000000000000600082015250565b6000612d47600a8361244f565b9150612d5282612d11565b600a82019050919050565b7f2200000000000000000000000000000000000000000000000000000000000000600082015250565b6000612d9360018361244f565b9150612d9e82612d5d565b600182019050919050565b7f7d00000000000000000000000000000000000000000000000000000000000000600082015250565b6000612ddf60018361244f565b9150612dea82612da9565b600182019050919050565b6000612e0082612be4565b9150612e0b82612c30565b9150612e178285612836565b9150612e2282612c7c565b9150612e2d82612cee565b9150612e3882612d3a565b9150612e448284612836565b9150612e4f82612d86565b9150612e5a82612dd2565b91508190509392505050565b7f646174613a6170706c69636174696f6e2f6a736f6e3b6261736536342c000000600082015250565b6000612e9c601d8361244f565b9150612ea782612e66565b601d82019050919050565b6000612ebd82612e8f565b9150612ec98284612836565b915081905092915050565b7f4552433732313a20696e76616c696420746f6b656e2049440000000000000000600082015250565b6000612f0a601883611de1565b9150612f1582612ed4565b602082019050919050565b60006020820190508181036000830152612f3981612efd565b9050919050565b7f4552433732313a2061646472657373207a65726f206973206e6f74206120766160008201527f6c6964206f776e65720000000000000000000000000000000000000000000000602082015250565b6000612f9c602983611de1565b9150612fa782612f40565b604082019050919050565b60006020820190508181036000830152612fcb81612f8f565b9050919050565b6000612fde8285612836565b9150612fea8284612836565b91508190509392505050565b7f4e487b7100000000000000000000000000000000000000000000000000000000600052601260045260246000fd5b600061303082611e91565b915061303b83611e91565b92508261304b5761304a612ff6565b5b828204905092915050565b600061306182611e91565b915061306c83611e91565b9250817fffffffffffffffffffffffffffffffffffffffffffffffffffffffffffffffff04831182151516156130a5576130a4612b36565b5b828202905092915050565b7f45524337323155524953746f726167653a2055524920736574206f66206e6f6e60008201527f6578697374656e7420746f6b656e000000000000000000000000000000000000602082015250565b600061310c602e83611de1565b9150613117826130b0565b604082019050919050565b6000602082019050818103600083015261313b816130ff565b9050919050565b7f4552433732313a207472616e736665722066726f6d20696e636f72726563742060008201527f6f776e6572000000000000000000000000000000000000000000000000000000602082015250565b600061319e602583611de1565b91506131a982613142565b604082019050919050565b600060208201905081810360008301526131cd81613191565b9050919050565b7f4552433732313a207472616e7366657220746f20746865207a65726f2061646460008201527f7265737300000000000000000000000000000000000000000000000000000000602082015250565b6000613230602483611de1565b915061323b826131d4565b604082019050919050565b6000602082019050818103600083015261325f81613223565b9050919050565b600061327182611e91565b915061327c83611e91565b92508282101561328f5761328e612b36565b5b828203905092915050565b60006132a582611e91565b91507fffffffffffffffffffffffffffffffffffffffffffffffffffffffffffffffff8214156132d8576132d7612b36565b5b600182019050919050565b60006132ee82611e91565b91506132f983611e91565b92508261330957613308612ff6565b5b828206905092915050565b7f4e487b7100000000000000000000000000000000000000000000000000000000600052603260045260246000fd5b7f4552433732313a20617070726f766520746f2063616c6c657200000000000000600082015250565b6000613379601983611de1565b915061338482613343565b602082019050919050565b600060208201905081810360008301526133a88161336c565b9050919050565b7f4552433732313a207472616e7366657220746f206e6f6e20455243373231526560008201527f63656976657220696d706c656d656e7465720000000000000000000000000000602082015250565b600061340b603283611de1565b9150613416826133af565b604082019050919050565b6000602082019050818103600083015261343a816133fe565b9050919050565b600081519050919050565b600082825260208201905092915050565b600061346882613441565b613472818561344c565b9350613482818560208601611df2565b61348b81611e25565b840191505092915050565b60006080820190506134ab6000830187611f26565b6134b86020830186611f26565b6134c5604083018561203c565b81810360608301526134d7818461345d565b905095945050505050565b6000815190506134f181611d47565b92915050565b60006020828403121561350d5761350c611d11565b5b600061351b848285016134e2565b91505092915050565b7f4552433732313a206d696e7420746f20746865207a65726f2061646472657373600082015250565b600061355a602083611de1565b915061356582613524565b602082019050919050565b600060208201905081810360008301526135898161354d565b9050919050565b7f4552433732313a20746f6b656e20616c7265616479206d696e74656400000000600082015250565b60006135c6601c83611de1565b91506135d182613590565b602082019050919050565b600060208201905081810360008301526135f5816135b9565b905091905056fe4142434445464748494a4b4c4d4e4f505152535455565758595a6162636465666768696a6b6c6d6e6f707172737475767778797a303132333435363738392b2fa264697066735822122085e2b4f88f547432c1a17fd09123365c92f8de4a1b698df96e5df5f5830aa00264736f6c63430008090033",
  "linkReferences": {},
  "deployedLinkReferences": {}
}